:100000000C942A000C9447000C9447000C94470071
:100010000C9447000C9447000C9447000C94470044
:100020000C9447000C94510B0C9447000C9447001F
:100030000C9447000C9447000C94D70C0C94470088
:100040000C9447000C9447000C9447000C94470014
:100050000C94470011241FBECFE5D8E0DEBFCDBF12
:1000600010E0A0E6B0E0E8EBFAE102C005900D92E6
:10007000AC39B107D9F724E0ACE9B0E001C01D927A
:10008000A43EB207E1F70E9414060C945A0D0C949A
:100090000000CF93DF931F92CDB7DEB789838981AC
:1000A000882F90E080329105C1F0813291051CF4D7
:1000B000409741F033C080349105D1F080389105EC
:1000C00011F12CC04FEF60E181E00E949C0640E0FE
:1000D00060E181E00E94480721C04FEF60E281E0CB
:1000E0000E949C0640E060E281E00E94480716C042
:1000F0004FEF60E481E00E949C0640E060E481E014
:100100000E9448070BC04FEF60E881E00E949C0608
:1001100040E060E881E00E944807000000000F9086
:10012000DF91CF910895CF93DF931F92CDB7DEB7C4
:1001300089838981882F90E08032910599F08132FE
:1001400091051CF4409741F01FC08034910581F067
:100150008038910599F018C041E060E181E00E948B
:10016000480712C041E060E281E00E9448070CC0ED
:1001700041E060E481E00E94480706C041E060E899
:1001800081E00E944807000000000F90DF91CF91AE
:100190000895CF93DF931F92CDB7DEB7898389810E
:1001A000882F90E08032910599F0813291051CF4FE
:1001B000409741F01FC08034910581F0803891054F
:1001C00099F018C040E060E181E00E94480712C049
:1001D00040E060E281E00E9448070CC040E060E43B
:1001E00081E00E94480706C040E060E881E00E948C
:1001F0004807000000000F90DF91CF910895CF9342
:10020000DF931F92CDB7DEB789838981882F90E075
:100210008032910591F0813291051CF4409741F0B4
:100220001BC08034910571F08038910581F014C0B5
:1002300060E181E00E94E7070FC060E281E00E9478
:10024000E7070AC060E481E00E94E70705C060E8B4
:1002500081E00E94E707000000000F90DF91CF913E
:100260000895CF93DF9300D01F92CDB7DEB79B8365
:100270008A83198281E4809363001092A200109215
:10028000A3008A819B81892B41F180916400882F92
:1002900090E08130910531F08230910589F0892B11
:1002A00041F01DC08A819B81909366008093650018
:1002B00016C08A819B8190936800809367000FC06D
:1002C0008A819B8190936600809365008A819B81DF
:1002D000909368008093670002C089E089838091D1
:1002E000AB00882F90E08130910569F08230910554
:1002F00061F0892B09F00AC00E94940B8CEC91E00C
:100300000E94C40C03C0000001C0000089810F904E
:100310000F900F90DF91CF910895CF93DF931F92AD
:10032000CDB7DEB781E0898310929D0010929C00CA
:100330001092A1001092A0001092A2001092A300AF
:100340001092A7001092A6001092A5001092A4008F
:100350001092A8001092A90081E08093600081E0D3
:100360008093610081E0809362008091AB00882FD0
:1003700090E08130910531F08230910529F0892B90
:1003800029F005C0000003C0000001C00000898101
:100390000F90DF91CF910895CF93DF93CDB7DEB764
:1003A000109261000000DF91CF910895CF93DF9309
:1003B00000D000D01F92CDB7DEB79B838A837D83A8
:1003C0006C8319828091A300882361F58A819B81C7
:1003D000892B29F18C819D81893E9340E8F410920C
:1003E000A8008C819D819093A7008093A6008A81AC
:1003F0009B819093A5008093A40081E08093A3004B
:100400001092AA0010929F0010929E00109261001C
:1004100081E08093620008C086E0898305C088E09F
:10042000898302C083E0898389810F900F900F90A8
:100430000F900F90DF91CF910895CF93DF93CDB7B9
:10044000DEB78091A300813009F099C080916100EE
:10045000882309F094C081E0809361008091AA0014
:10046000882F90E081309105A1F0823091051CF435
:10047000892B41F084C08230910569F1039709F41A
:100480006CC07DC081E40E94C30281E08093AA0019
:1004900076C080916200813051F48091A6009091E5
:1004A000A7000E94C30282E08093620065C0809131
:1004B0006200823009F060C08091A6009091A70090
:1004C000892F99270E94C30281E08093620082E015
:1004D0008093AA0051C02091A6003091A70080917E
:1004E0009E0090919F008217930740F52091A400F1
:1004F0003091A50080919E0090919F00820F931FE4
:10050000FC0180810E94C3022091A4003091A500CB
:1005100080919E0090919F00820F931FFC0180812B
:100520009091A800890F8093A80080919E009091DF
:100530009F00019690939F0080939E002091A600BB
:100540003091A70080919E0090919F002817390755
:10055000A9F483E08093AA0011C08091A8000E94B2
:10056000C3028091670090916800FC010995109288
:10057000A3000E948D0103C0000001C00000000024
:10058000DF91CF910895CF93DF9300D0CDB7DEB741
:100590008A8319828091AB00882F90E08130910589
:1005A00061F08230910559F0892B21F48A810E94F3
:1005B0009A0C06C081E0898303C0000001C00000DE
:1005C00089810F900F90DF91CF910895CF93DF93A2
:1005D000CDB7DEB728970FB6F894DEBF0FBECDBFFC
:1005E00098878F8319821092E8008F819885FC018B
:1005F00080818093E9001092EA008F819885FC0148
:100600008181482F50E028EE33E0429FC001439F94
:10061000900D529F900D1124092E000CAA0BBB0BBC
:100620008B839C83AD83BE831A824AC08A81282F24
:1006300030E0C901880F991F820F931F880F991FFF
:10064000880F991F84559F4FFC0110828A81282FA3
:1006500030E0C901880F991F820F931F880F991FDF
:10066000880F991F82559F4FFC01108211821282C0
:1006700013828A81282F30E0C901880F991F820FC9
:10068000931F880F991F880F991F8A549F4FFC0151
:10069000118210828A81282F30E0C901880F991FAA
:1006A000820F931F880F991F880F991F8E549F4F99
:1006B000FC0110821182128213828A818F5F8A83E9
:1006C0008A81853008F4B2CF83EE95E00E943E0B1C
:1006D0008091E900882F90E081309105B1F082305F
:1006E000910521F1892B99F58EE690E00E9443084F
:1006F0008B819C81AD81BE81AC01BD0180E00E94F7
:10070000B60980E00E94000B25C089E790E00E94B6
:1007100043088B819C81AD81BE81AC01BD0181E02C
:100720000E94B60981E00E94000B14C084E890E0AA
:100730000E9443088B819C81AD81BE81AC01BD01CB
:1007400082E00E94B60982E00E94000B03C085E0AF
:1007500089830000898128960FB6F894DEBF0FBE0A
:10076000CDBFDF91CF9108950F931F93CF93DF9368
:10077000CDB7DEB72B970FB6F894DEBF0FBECDBF57
:100780006B837C838D839E834F83398728871B8768
:100790000A8719828091E800863018F081E0898309
:1007A00016C08B819C81AD81BE8181309241AA4768
:1007B000B10518F082E089830AC08F81882331F067
:1007C0008F81813019F084E0898301C01982898189
:1007D000882309F088C081E08A8381C08A81282F1C
:1007E00030E0C901880F991F820F931F880F991F4E
:1007F000880F991F84559F4FFC018081882309F041
:100800006BC08A81282F30E0C901880F991F820FA1
:10081000931F880F991F880F991F84559F4F2A8116
:10082000FC0120838A81282F30E0C901880F991F9D
:10083000820F931F880F991F880F991F83559F4F11
:100840002F81FC0120838A81282F30E0C901880F85
:10085000991F820F931F880F991F880F991F9C0162
:1008600022553F4F8B819C81AD81BE81F9018083F0
:100870009183A283B3838A81282F30E0C901880F36
:10088000991F820F931F880F991F880F991F8A54F1
:100890009F4F28853985FC01318320838A81282F49
:1008A00030E0C901880F991F820F931F880F991F8D
:1008B000880F991F8E549F4FFC0110821182128263
:1008C00013828A859B852A81FC0120838091E80020
:1008D0008F5F8093E80007C08A818F5F8A838A8157
:1008E000853008F47BCF89812B960FB6F894DEBF54
:1008F0000FBECDBFDF91CF911F910F910895CF9380
:10090000DF9300D000D0CDB7DEB78C8319821B8275
:1009100081E08A8376C08A81282F30E0C901880F60
:10092000991F820F931F880F991F880F991F845555
:100930009F4FFC0190818C81981709F05FC08A81DC
:10094000282F30E0C901880F991F820F931F880F4D
:10095000991F880F991F84559F4FFC0110828A812F
:10096000282F30E0C901880F991F820F931F880F2D
:10097000991F880F991F83559F4FFC0110828A8110
:10098000282F30E0C901880F991F820F931F880F0D
:10099000991F880F991F82559F4FFC011082118269
:1009A000128213828A81282F30E0C901880F991F93
:1009B000820F931F880F991F880F991F8E549F4F86
:1009C000FC0110821182128213828A81282F30E06A
:1009D000C901880F991F820F931F880F991F880FD5
:1009E000991F8A549F4FFC01118210828091E80068
:1009F00081508093E80081E08B8307C08A818F5FFC
:100A00008A838A81853008F486CF8B81882311F40C
:100A100083E0898389810F900F900F900F90DF9171
:100A2000CF910895CF93DF931F92CDB7DEB780911A
:100A3000EA00882309F4C2C081E08983A5C08981C6
:100A4000682F70E08981282F30E0C901880F991F35
:100A5000820F931F880F991F880F991F8E549F4FE5
:100A6000FC0180819181A281B3819C01AD012F5F46
:100A70003F4F4F4F5F4FCB01880F991F860F971F36
:100A8000880F991F880F991F8E549F4FFC01208358
:100A90003183428353838981282F30E0C901880F35
:100AA000991F820F931F880F991F880F991F8E54CB
:100AB0009F4FFC0120813181428153818981682FC0
:100AC00070E0CB01880F991F860F971F880F991F21
:100AD000880F991F82559F4FFC0180819181A281CF
:100AE000B381281739074A075B0709F04AC0898193
:100AF000282F30E0C901880F991F820F931F880F9C
:100B0000991F880F991F8A549F4FFC018081918102
:100B1000FC0109958981282F30E0C901880F991FB0
:100B2000820F931F880F991F880F991F8E549F4F14
:100B3000FC0110821182128213828981282F30E0F9
:100B4000C901880F991F820F931F880F991F880F63
:100B5000991F83559F4FFC018081882391F48981DF
:100B6000282F30E0C901880F991F820F931F880F2B
:100B7000991F880F991F84559F4FFC0180810E9407
:100B80007F0489818F5F89838091E800998189172B
:100B900098F08981282F30E0C901880F991F820FB2
:100BA000931F880F991F880F991F84559F4FFC0131
:100BB0008081882309F043CF1092EA0000000F9053
:100BC000DF91CF910895CF93DF93CDB7DEB781E06A
:100BD0008093EA000000DF91CF910895CF93DF93D7
:100BE000CDB7DEB780E10E94FF000000DF91CF911A
:100BF0000895CF93DF93CDB7DEB780E20E94FF0068
:100C00000000DF91CF910895CF93DF93CDB7DEB78A
:100C10000000DF91CF910895CF93DF93CDB7DEB77A
:100C20000000DF91CF9108950F931F93CF93DF932F
:100C300000D000D01F92CDB7DEB71A8219820CC047
:100C400089819A818B509F4F2DE4FC0120838981FB
:100C50009A8101969A83898389819A81883E9340FB
:100C600078F380E10E94490080E20E94490080E41C
:100C70000E94490080E80E9449008EEE95E00E94A3
:100C8000310168EE73E085EF90E00E94D60189E6BD
:100C900090E00E94E602CE0103968C0129EF35E038
:100CA00041E06AE070E080E090E00E94B403CE0191
:100CB00004968C0124E036E041E064E670E080E0D8
:100CC00090E00E94B403CE0105968C012CE036E042
:100CD00041E064EF71E080E090E00E94B40385E5BC
:100CE00090E025E530E0F90120812F78FC01208398
:100CF00080E80E94930080E40E9493000E941D02FD
:100D00000E94120580E40E94C90085E590E025E577
:100D100030E0F90120812068FC012083889585E579
:100D200090E025E530E0F90120812F77FC01208358
:100D300080E80E94C900DCCFCF93DF9300D01F92E0
:100D4000CDB7DEB789836A834B838981882F90E092
:100D50008130910581F1823091051CF4892B49F095
:100D600090C08230910509F448C0039709F467C028
:100D700088C08B81882F90E0009721F08F3F9105EC
:100D800071F07FC08AE390E02AE330E0F90120812E
:100D9000322F2A8120952323FC0120830BC08AE374
:100DA00090E02AE330E0F90130812A81232BFC0115
:100DB0002083000066C08B81882F90E0009721F08F
:100DC0008F3F910571F05DC087E390E027E330E04D
:100DD000F9012081322F2A8120952323FC012083D1
:100DE0000BC087E390E027E330E0F90130812A81EE
:100DF000232BFC012083000044C08B81882F90E0CE
:100E0000009721F08F3F910571F03BC084E390E0A3
:100E100024E330E0F9012081322F2A812095232319
:100E2000FC0120830BC084E390E024E330E0F9016F
:100E300030812A81232BFC012083000022C08B817A
:100E4000882F90E0009721F08F3F910571F018C036
:100E500081E390E021E330E0F9012081322F2A8103
:100E600020952323FC0120830BC081E390E021E344
:100E700030E0F90130812A81232BFC01208300001E
:100E8000000000000F900F900F90DF91CF91089518
:100E9000CF93DF9300D01F92CDB7DEB789836A83EB
:100EA0004B838B81882F90E0009709F442C0019713
:100EB00009F086C08981882F90E081309105B9F0D2
:100EC000823091051CF4892B39F07AC0823091056B
:100ED000C9F0039711F174C08BE390E02BE330E08D
:100EE000F90130812A81232BFC01208321C088E372
:100EF00090E028E330E0F90130812A81232BFC01C6
:100F0000208316C085E390E025E330E0F9013081CD
:100F10002A81232BFC0120830BC082E390E022E393
:100F200030E0F90130812A81232BFC01208300006D
:100F300047C08981882F90E081309105C9F08230C7
:100F400091051CF4892B39F03AC082309105E9F003
:100F5000039741F134C08BE390E02BE330E0F901DB
:100F60002081322F2A8120952323FC01208327C052
:100F700088E390E028E330E0F9012081322F2A81D4
:100F800020952323FC0120831AC085E390E025E30C
:100F900030E0F9012081322F2A8120952323FC01A2
:100FA00020830DC082E390E022E330E0F90120814C
:100FB000322F2A8120952323FC012083000000008A
:100FC00000000F900F900F90DF91CF910895CF9375
:100FD000DF9300D0CDB7DEB789836A838981882FFC
:100FE00090E081309105B9F0823091051CF4892B95
:100FF00039F032C082309105C9F0039711F12CC04D
:101000008BE390E02BE330E0F90130812A81232744
:10101000FC01208321C088E390E028E330E0F9015F
:1010200030812A812327FC01208316C085E390E0CC
:1010300025E330E0F90130812A812327FC01208358
:101040000BC082E390E022E330E0F90130812A8195
:101050002327FC012083000000000F900F90DF91F8
:10106000CF910895CF93DF93CDB7DEB78FE590E0B2
:101070002FE530E0F90120812068FC012083000089
:10108000DF91CF910895CF93DF9300D01F92CDB71A
:10109000DEB79B838A8319828A819B81FC018781C9
:1010A0009085A185B2858093EB009093EC00A0938E
:1010B000ED00B093EE008A819B81FC018081882F36
:1010C00090E08130910509F464C08230910509F403
:1010D000CCC0892B09F026C183E590E023E530E000
:1010E000F90140812A813B81F9012181242BFC01F6
:1010F000208389E590E029E530E0F90140812A81EB
:101100003B81F9012681242BFC01208380916B0017
:10111000882F90E082309105E9F0833091052CF41E
:10112000009761F0019779F031C08430910501F1A9
:1011300084309105B4F0059711F128C01092E104B4
:101140001092E00423C081E090E09093E10480934A
:10115000E0041CC088E090E09093E1048093E004F8
:1011600015C080E490E09093E1048093E0040EC009
:1011700080E091E09093E1048093E00407C080E078
:1011800094E09093E1048093E004000081E089837F
:10119000CBC08FE490E02FE430E0F9012081422FB2
:1011A0002A813B81F90121812370242BFC012083BA
:1011B0008EE490E02EE430E0F9012081422F2A8174
:1011C0003B81F90121812871242BFC01208389E5D1
:1011D00090E029E530E0F90120812460FC012083C2
:1011E0000E94320880916C00882F90E08230910537
:1011F000E9F0833091052CF4009761F0019779F0C4
:1012000031C08430910501F184309105B4F0059727
:1012100011F128C01092E3041092E20423C081E08F
:1012200090E09093E3048093E2041CC088E090E097
:101230009093E3048093E20415C080E490E09093DF
:10124000E3048093E2040EC080E091E09093E30415
:101250008093E20407C080E094E09093E3048093DD
:10126000E204000081E089835FC085E490E025E42A
:1012700030E0F90140812A813B81F9012181242B51
:10128000FC01208389E590E029E530E0F901408107
:101290002A813B81F9012681242BFC012083809146
:1012A0006D00882F90E082309105E9F08330910540
:1012B0002CF4009761F0019779F031C086309105E8
:1012C00001F18730910521F10497A1F028C0109217
:1012D000DF041092DE0423C081E090E09093DF04ED
:1012E0008093DE041CC088E090E09093DF0480933C
:1012F000DE0415C080E490E09093DF048093DE0468
:101300000EC080E091E09093DF048093DE0407C07C
:1013100080E094E09093DF048093DE04000081E09D
:10132000898302C0198200008A819B81FC0182812D
:101330009381A481B5819093F0008093EF00809118
:10134000EF009091F000CC01A0E0B0E02A813B8159
:10135000F9012081AC01BD01822F0E94B60989816B
:101360000F900F900F90DF91CF910895CF93DF935F
:10137000CDB7DEB72D970FB6F894DEBF0FBECDBF49
:1013800089874A875B876C877D8719821A821B82CF
:101390001C828985882F90E08130910509F461C015
:1013A0008230910509F4BDC0892B09F014C18091E8
:1013B000E0049091E104CC01A0E0B0E09C01AD011B
:1013C00060E472E48FE090E00E940E0DDC01CB013E
:1013D0002091EB003091EC004091ED005091EE0037
:1013E000BC01CD010E941E0DDA01C9019C01AD01B5
:1013F0008A859B85AC85BD85BC01CD010E941E0DF3
:10140000DA01C9018D839E83AF83B8878D819E8168
:10141000AF81B88581309140A105B10528F01982CE
:101420001A821B821C82DCC08D819E8120E031E00B
:10143000A901481B590BCA019093F0008093EF005B
:1014400082E590E02091EF003091F000FC012083D4
:1014500081E090E0A0E0B0E089839A83AB83BC8315
:10146000BFC08091E2049091E304CC01A0E0B0E021
:101470009C01AD0160E472E48FE090E00E940E0DEB
:10148000DC01CB012091EB003091EC004091ED00AC
:101490005091EE00BC01CD010E941E0DDA01C90180
:1014A0009C01AD018A859B85AC85BD85BC01CD01C4
:1014B0000E941E0DDA01C9018D839E83AF83B88718
:1014C0008D819E81AF81B8850197A140B10528F03B
:1014D00019821A821B821C8283C08D819E81919504
:1014E000819591099093F0008093EF008DE490E056
:1014F0002091EF003091F000232F3327FC0120834F
:101500008CE490E02091EF003091F000FC0120830A
:1015100081E090E0A0E0B0E089839A83AB83BC8354
:101520005FC08091DE049091DF04CC01A0E0B0E0C8
:101530009C01AD0160E472E48FE090E00E940E0D2A
:10154000DC01CB012091EB003091EC004091ED00EB
:101550005091EE00BC01CD010E941E0DDA01C901BF
:101560009C01AD018A859B85AC85BD85BC01CD0103
:101570000E941E0DDA01C9018D839E83AF83B88757
:101580008D819E81AF81B88581309140A105B105E3
:1015900028F019821A821B821C8222C08D819E81B2
:1015A00020E031E0A901481B590BCA019093F000DB
:1015B0008093EF0084E490E02091EF003091F00000
:1015C000FC01208381E090E0A0E0B0E089839A8371
:1015D000AB83BC8305C019821A821B821C82000067
:1015E0008A859B859093F0008093EF0089812D96EA
:1015F0000FB6F894DEBF0FBECDBFDF91CF91089537
:10160000CF93DF931F92CDB7DEB789838981882F6F
:1016100090E08130910599F082309105E9F0892BB5
:1016200009F027C083E590E023E530E0F90120814F
:10163000287F30916B00232BFC0120831AC08EE49D
:1016400090E02EE430E0F9012081287F30916C0099
:10165000232BFC0120830DC085E490E025E430E0DD
:10166000F9012081287F30916D00232BFC0120831C
:10167000000081E00F90DF91CF910895CF93DF9329
:1016800000D0CDB7DEB79A83898389819A81909300
:10169000F2008093F10000000F900F90DF91CF9146
:1016A00008951F920F9200905F000F9211242F93C4
:1016B0003F934F935F936F937F938F939F93AF93DA
:1016C000BF93EF93FF93CF93DF93CDB7DEB78091B6
:1016D000F1009091F200892B31F08091F10090910E
:1016E000F200FC0109958091EF009091F000CC018F
:1016F000A0E0B0E0AC01BD0181E00E94B6090000AD
:10170000DF91CF91FF91EF91BF91AF919F918F9119
:101710007F916F915F914F913F912F910F90009228
:101720005F000F901F901895EF92FF920F931F93F9
:10173000CF93DF9300D000D0CDB7DEB781E08983AF
:1017400080E88A83209198003091990040919A0016
:1017500050919B0080918F0090919000A0919100FA
:10176000B0919200880F991FAA1FBB1F880F991F65
:10177000AA1FBB1F880F991FAA1FBB1F880F991F85
:10178000AA1FBB1F7C018D01CA01B901A8019701E5
:101790000E941E0DDA01C90101979C838B838A8107
:1017A00080688A838A8182608A838A8184608A834E
:1017B0008AE290E02AE230E0F90120812B7FFC01EF
:1017C000208380919300882F90E0009761F001972B
:1017D000A1F48AE290E02AE230E0F9012081206160
:1017E000FC0120830CC08AE290E02AE230E0F9019B
:1017F00020812F7EFC01208302C01982000080918D
:101800009400882F90E0009761F00197A1F48AE29C
:1018100090E02AE230E0F90120812860FC01208379
:101820000CC08AE290E02AE230E0F9012081277FB3
:10183000FC01208302C01982000080919500882F4E
:1018400090E08130910561F08230910581F0892B23
:10185000A9F48A818F7E8A838A818F7D8A8310C0D2
:101860008A818F7E8A838A8180628A8309C08A8185
:1018700080618A838A8180628A8302C01982000023
:1018800080919600882F90E08130910519F00297A1
:1018900029F008C08A81877F8A8306C08A81886090
:1018A0008A8302C01982000080919700882F90E0FF
:1018B0000097F1F0019731F58AE290E02AE230E0FA
:1018C000F90120812068FC0120838AE290E02AE26D
:1018D00030E0F90120812064FC0120838AE290E05D
:1018E0002AE230E0F90120812062FC0120830CC053
:1018F0008AE290E02AE230E0F90120812F77FC01B2
:10190000208302C01982000080E490E026E0FC0100
:10191000208389E290E02B81FC01208389810F9054
:101920000F900F900F90DF91CF911F910F91FF902B
:10193000EF900895CF93DF931F92CDB7DEB78983E1
:1019400000008BE290E0FC01808182958695877093
:10195000882F90E081709927892B99F38CE290E091
:101960002981FC0120838091F3009091F400892B60
:1019700031F08091F3009091F400FC01099581E031
:101980000F90DF91CF910895CF93DF9300D0CDB723
:10199000DEB79A83898389819A819093F40080933A
:1019A000F30000000F900F90DF91CF9108951F92E8
:1019B0000F9200905F000F9211242F933F934F934B
:1019C0005F936F937F938F939F93AF93BF93EF93A7
:1019D000FF93CF93DF93CDB7DEB78091F300909163
:1019E000F400892B31F08091F3009091F400FC0118
:1019F00009950000DF91CF91FF91EF91BF91AF91D9
:101A00009F918F917F916F915F914F913F912F9116
:101A10000F9000925F000F901F901895DB018F933D
:101A20009F930E94400DBF91AF91A29F800D911D89
:101A3000A39F900DB29F900D11240895A1E21A2E3C
:101A4000AA1BBB1BFD010DC0AA1FBB1FEE1FFF1F62
:101A5000A217B307E407F50720F0A21BB30BE40BB2
:101A6000F50B661F771F881F991F1A9469F76095F9
:101A70007095809590959B01AC01BD01CF010895B3
:101A80000E944B0DA59F900DB49F900DA49F800DBB
:101A9000911D11240895A29FB001B39FC001A39F7F
:101AA000700D811D1124911DB29F700D811D112497
:081AB000911D0895F894FFCF89
:101AB80001010141000000000001010105010000D1
:101AC80040420F000100127A00010040420F00015D
:101AD80000127A00020040420F000100127A0080D2
:0C1AE800250000000100010000127A003F
:00000001FF
